{
  "_format": "hh-sol-artifact-1",
  "contractName": "JungelTycoon",
  "sourceName": "contracts/NFTstacking.sol",
  "abi": [
    {
      "inputs": [
        {
          "internalType": "string",
          "name": "_name",
          "type": "string"
        },
        {
          "internalType": "string",
          "name": "_symbol",
          "type": "string"
        },
        {
          "internalType": "string",
          "name": "_initBaseURI",
          "type": "string"
        },
        {
          "internalType": "string",
          "name": "_initNotRevealedUri",
          "type": "string"
        }
      ],
      "stateMutability": "nonpayable",
      "type": "constructor"
    },
    {
      "anonymous": false,
      "inputs": [
        {
          "indexed": true,
          "internalType": "address",
          "name": "owner",
          "type": "address"
        },
        {
          "indexed": true,
          "internalType": "address",
          "name": "approved",
          "type": "address"
        },
        {
          "indexed": true,
          "internalType": "uint256",
          "name": "tokenId",
          "type": "uint256"
        }
      ],
      "name": "Approval",
      "type": "event"
    },
    {
      "anonymous": false,
      "inputs": [
        {
          "indexed": true,
          "internalType": "address",
          "name": "owner",
          "type": "address"
        },
        {
          "indexed": true,
          "internalType": "address",
          "name": "operator",
          "type": "address"
        },
        {
          "indexed": false,
          "internalType": "bool",
          "name": "approved",
          "type": "bool"
        }
      ],
      "name": "ApprovalForAll",
      "type": "event"
    },
    {
      "anonymous": false,
      "inputs": [
        {
          "indexed": true,
          "internalType": "address",
          "name": "previousOwner",
          "type": "address"
        },
        {
          "indexed": true,
          "internalType": "address",
          "name": "newOwner",
          "type": "address"
        }
      ],
      "name": "OwnershipTransferred",
      "type": "event"
    },
    {
      "anonymous": false,
      "inputs": [
        {
          "indexed": true,
          "internalType": "address",
          "name": "from",
          "type": "address"
        },
        {
          "indexed": true,
          "internalType": "address",
          "name": "to",
          "type": "address"
        },
        {
          "indexed": true,
          "internalType": "uint256",
          "name": "tokenId",
          "type": "uint256"
        }
      ],
      "name": "Transfer",
      "type": "event"
    },
    {
      "inputs": [
        {
          "internalType": "address",
          "name": "",
          "type": "address"
        }
      ],
      "name": "addressMintedBalance",
      "outputs": [
        {
          "internalType": "uint256",
          "name": "",
          "type": "uint256"
        }
      ],
      "stateMutability": "view",
      "type": "function"
    },
    {
      "inputs": [
        {
          "internalType": "address",
          "name": "to",
          "type": "address"
        },
        {
          "internalType": "uint256",
          "name": "tokenId",
          "type": "uint256"
        }
      ],
      "name": "approve",
      "outputs": [],
      "stateMutability": "nonpayable",
      "type": "function"
    },
    {
      "inputs": [
        {
          "internalType": "address",
          "name": "owner",
          "type": "address"
        }
      ],
      "name": "balanceOf",
      "outputs": [
        {
          "internalType": "uint256",
          "name": "",
          "type": "uint256"
        }
      ],
      "stateMutability": "view",
      "type": "function"
    },
    {
      "inputs": [],
      "name": "baseExtension",
      "outputs": [
        {
          "internalType": "string",
          "name": "",
          "type": "string"
        }
      ],
      "stateMutability": "view",
      "type": "function"
    },
    {
      "inputs": [],
      "name": "baseURI",
      "outputs": [
        {
          "internalType": "string",
          "name": "",
          "type": "string"
        }
      ],
      "stateMutability": "view",
      "type": "function"
    },
    {
      "inputs": [],
      "name": "cost",
      "outputs": [
        {
          "internalType": "uint256",
          "name": "",
          "type": "uint256"
        }
      ],
      "stateMutability": "view",
      "type": "function"
    },
    {
      "inputs": [
        {
          "internalType": "uint256",
          "name": "tokenId",
          "type": "uint256"
        }
      ],
      "name": "getApproved",
      "outputs": [
        {
          "internalType": "address",
          "name": "",
          "type": "address"
        }
      ],
      "stateMutability": "view",
      "type": "function"
    },
    {
      "inputs": [
        {
          "internalType": "address",
          "name": "owner",
          "type": "address"
        },
        {
          "internalType": "address",
          "name": "operator",
          "type": "address"
        }
      ],
      "name": "isApprovedForAll",
      "outputs": [
        {
          "internalType": "bool",
          "name": "",
          "type": "bool"
        }
      ],
      "stateMutability": "view",
      "type": "function"
    },
    {
      "inputs": [
        {
          "internalType": "address",
          "name": "_user",
          "type": "address"
        }
      ],
      "name": "isWhitelisted",
      "outputs": [
        {
          "internalType": "bool",
          "name": "",
          "type": "bool"
        }
      ],
      "stateMutability": "view",
      "type": "function"
    },
    {
      "inputs": [],
      "name": "maxMintAmount",
      "outputs": [
        {
          "internalType": "uint256",
          "name": "",
          "type": "uint256"
        }
      ],
      "stateMutability": "view",
      "type": "function"
    },
    {
      "inputs": [],
      "name": "maxSupply",
      "outputs": [
        {
          "internalType": "uint256",
          "name": "",
          "type": "uint256"
        }
      ],
      "stateMutability": "view",
      "type": "function"
    },
    {
      "inputs": [
        {
          "internalType": "uint256",
          "name": "_mintAmount",
          "type": "uint256"
        }
      ],
      "name": "mint",
      "outputs": [],
      "stateMutability": "payable",
      "type": "function"
    },
    {
      "inputs": [],
      "name": "name",
      "outputs": [
        {
          "internalType": "string",
          "name": "",
          "type": "string"
        }
      ],
      "stateMutability": "view",
      "type": "function"
    },
    {
      "inputs": [],
      "name": "nftPerAddressLimit",
      "outputs": [
        {
          "internalType": "uint256",
          "name": "",
          "type": "uint256"
        }
      ],
      "stateMutability": "view",
      "type": "function"
    },
    {
      "inputs": [],
      "name": "notRevealedUri",
      "outputs": [
        {
          "internalType": "string",
          "name": "",
          "type": "string"
        }
      ],
      "stateMutability": "view",
      "type": "function"
    },
    {
      "inputs": [],
      "name": "onlyWhitelisted",
      "outputs": [
        {
          "internalType": "bool",
          "name": "",
          "type": "bool"
        }
      ],
      "stateMutability": "view",
      "type": "function"
    },
    {
      "inputs": [],
      "name": "owner",
      "outputs": [
        {
          "internalType": "address",
          "name": "",
          "type": "address"
        }
      ],
      "stateMutability": "view",
      "type": "function"
    },
    {
      "inputs": [
        {
          "internalType": "uint256",
          "name": "tokenId",
          "type": "uint256"
        }
      ],
      "name": "ownerOf",
      "outputs": [
        {
          "internalType": "address",
          "name": "",
          "type": "address"
        }
      ],
      "stateMutability": "view",
      "type": "function"
    },
    {
      "inputs": [
        {
          "internalType": "bool",
          "name": "_state",
          "type": "bool"
        }
      ],
      "name": "pause",
      "outputs": [],
      "stateMutability": "nonpayable",
      "type": "function"
    },
    {
      "inputs": [],
      "name": "paused",
      "outputs": [
        {
          "internalType": "bool",
          "name": "",
          "type": "bool"
        }
      ],
      "stateMutability": "view",
      "type": "function"
    },
    {
      "inputs": [],
      "name": "renounceOwnership",
      "outputs": [],
      "stateMutability": "nonpayable",
      "type": "function"
    },
    {
      "inputs": [],
      "name": "reveal",
      "outputs": [],
      "stateMutability": "nonpayable",
      "type": "function"
    },
    {
      "inputs": [],
      "name": "revealed",
      "outputs": [
        {
          "internalType": "bool",
          "name": "",
          "type": "bool"
        }
      ],
      "stateMutability": "view",
      "type": "function"
    },
    {
      "inputs": [
        {
          "internalType": "address",
          "name": "from",
          "type": "address"
        },
        {
          "internalType": "address",
          "name": "to",
          "type": "address"
        },
        {
          "internalType": "uint256",
          "name": "tokenId",
          "type": "uint256"
        }
      ],
      "name": "safeTransferFrom",
      "outputs": [],
      "stateMutability": "nonpayable",
      "type": "function"
    },
    {
      "inputs": [
        {
          "internalType": "address",
          "name": "from",
          "type": "address"
        },
        {
          "internalType": "address",
          "name": "to",
          "type": "address"
        },
        {
          "internalType": "uint256",
          "name": "tokenId",
          "type": "uint256"
        },
        {
          "internalType": "bytes",
          "name": "_data",
          "type": "bytes"
        }
      ],
      "name": "safeTransferFrom",
      "outputs": [],
      "stateMutability": "nonpayable",
      "type": "function"
    },
    {
      "inputs": [
        {
          "internalType": "address",
          "name": "operator",
          "type": "address"
        },
        {
          "internalType": "bool",
          "name": "approved",
          "type": "bool"
        }
      ],
      "name": "setApprovalForAll",
      "outputs": [],
      "stateMutability": "nonpayable",
      "type": "function"
    },
    {
      "inputs": [
        {
          "internalType": "string",
          "name": "_newBaseExtension",
          "type": "string"
        }
      ],
      "name": "setBaseExtension",
      "outputs": [],
      "stateMutability": "nonpayable",
      "type": "function"
    },
    {
      "inputs": [
        {
          "internalType": "string",
          "name": "_newBaseURI",
          "type": "string"
        }
      ],
      "name": "setBaseURI",
      "outputs": [],
      "stateMutability": "nonpayable",
      "type": "function"
    },
    {
      "inputs": [
        {
          "internalType": "uint256",
          "name": "_newCost",
          "type": "uint256"
        }
      ],
      "name": "setCost",
      "outputs": [],
      "stateMutability": "nonpayable",
      "type": "function"
    },
    {
      "inputs": [
        {
          "internalType": "uint256",
          "name": "_limit",
          "type": "uint256"
        }
      ],
      "name": "setNftPerAddressLimit",
      "outputs": [],
      "stateMutability": "nonpayable",
      "type": "function"
    },
    {
      "inputs": [
        {
          "internalType": "string",
          "name": "_notRevealedURI",
          "type": "string"
        }
      ],
      "name": "setNotRevealedURI",
      "outputs": [],
      "stateMutability": "nonpayable",
      "type": "function"
    },
    {
      "inputs": [
        {
          "internalType": "bool",
          "name": "_state",
          "type": "bool"
        }
      ],
      "name": "setOnlyWhitelisted",
      "outputs": [],
      "stateMutability": "nonpayable",
      "type": "function"
    },
    {
      "inputs": [
        {
          "internalType": "uint256",
          "name": "_newmaxMintAmount",
          "type": "uint256"
        }
      ],
      "name": "setmaxMintAmount",
      "outputs": [],
      "stateMutability": "nonpayable",
      "type": "function"
    },
    {
      "inputs": [
        {
          "internalType": "bytes4",
          "name": "interfaceId",
          "type": "bytes4"
        }
      ],
      "name": "supportsInterface",
      "outputs": [
        {
          "internalType": "bool",
          "name": "",
          "type": "bool"
        }
      ],
      "stateMutability": "view",
      "type": "function"
    },
    {
      "inputs": [],
      "name": "symbol",
      "outputs": [
        {
          "internalType": "string",
          "name": "",
          "type": "string"
        }
      ],
      "stateMutability": "view",
      "type": "function"
    },
    {
      "inputs": [
        {
          "internalType": "uint256",
          "name": "index",
          "type": "uint256"
        }
      ],
      "name": "tokenByIndex",
      "outputs": [
        {
          "internalType": "uint256",
          "name": "",
          "type": "uint256"
        }
      ],
      "stateMutability": "view",
      "type": "function"
    },
    {
      "inputs": [
        {
          "internalType": "address",
          "name": "owner",
          "type": "address"
        },
        {
          "internalType": "uint256",
          "name": "index",
          "type": "uint256"
        }
      ],
      "name": "tokenOfOwnerByIndex",
      "outputs": [
        {
          "internalType": "uint256",
          "name": "",
          "type": "uint256"
        }
      ],
      "stateMutability": "view",
      "type": "function"
    },
    {
      "inputs": [
        {
          "internalType": "uint256",
          "name": "tokenId",
          "type": "uint256"
        }
      ],
      "name": "tokenURI",
      "outputs": [
        {
          "internalType": "string",
          "name": "",
          "type": "string"
        }
      ],
      "stateMutability": "view",
      "type": "function"
    },
    {
      "inputs": [],
      "name": "totalSupply",
      "outputs": [
        {
          "internalType": "uint256",
          "name": "",
          "type": "uint256"
        }
      ],
      "stateMutability": "view",
      "type": "function"
    },
    {
      "inputs": [
        {
          "internalType": "address",
          "name": "from",
          "type": "address"
        },
        {
          "internalType": "address",
          "name": "to",
          "type": "address"
        },
        {
          "internalType": "uint256",
          "name": "tokenId",
          "type": "uint256"
        }
      ],
      "name": "transferFrom",
      "outputs": [],
      "stateMutability": "nonpayable",
      "type": "function"
    },
    {
      "inputs": [
        {
          "internalType": "address",
          "name": "newOwner",
          "type": "address"
        }
      ],
      "name": "transferOwnership",
      "outputs": [],
      "stateMutability": "nonpayable",
      "type": "function"
    },
    {
      "inputs": [
        {
          "internalType": "address",
          "name": "_owner",
          "type": "address"
        }
      ],
      "name": "walletOfOwner",
      "outputs": [
        {
          "internalType": "uint256[]",
          "name": "",
          "type": "uint256[]"
        }
      ],
      "stateMutability": "view",
      "type": "function"
    },
    {
      "inputs": [
        {
          "internalType": "address[]",
          "name": "_users",
          "type": "address[]"
        }
      ],
      "name": "whitelistUsers",
      "outputs": [],
      "stateMutability": "nonpayable",
      "type": "function"
    },
    {
      "inputs": [
        {
          "internalType": "uint256",
          "name": "",
          "type": "uint256"
        }
      ],
      "name": "whitelistedAddresses",
      "outputs": [
        {
          "internalType": "address",
          "name": "",
          "type": "address"
        }
      ],
      "stateMutability": "view",
      "type": "function"
    },
    {
      "inputs": [],
      "name": "withdraw",
      "outputs": [],
      "stateMutability": "payable",
      "type": "function"
    }
  ],
  "bytecode": "0x60c06040526005608081905264173539b7b760d91b60a09081526200002891600c91906200020a565b5066b1a2bc2ec50000600e55614e20600f556064601055600a6011556012805462ffffff1916620100001790553480156200006257600080fd5b50604051620033c0380380620033c0833981016040819052620000859162000363565b8351849084906200009e9060009060208501906200020a565b508051620000b49060019060208401906200020a565b505050620000d1620000cb620000f160201b60201c565b620000f5565b620000dc8262000147565b620000e781620001af565b505050506200046a565b3390565b600a80546001600160a01b038381166001600160a01b0319831681179093556040519116919082907f8be0079c531659141344cd1fd0a4f28419497f9722a3daafe3b4186f6b6457e090600090a35050565b600a546001600160a01b03163314620001965760405162461bcd60e51b81526020600482018190526024820152600080516020620033a083398151915260448201526064015b60405180910390fd5b8051620001ab90600b9060208401906200020a565b5050565b600a546001600160a01b03163314620001fa5760405162461bcd60e51b81526020600482018190526024820152600080516020620033a083398151915260448201526064016200018d565b8051620001ab90600d9060208401905b828054620002189062000417565b90600052602060002090601f0160209004810192826200023c576000855562000287565b82601f106200025757805160ff191683800117855562000287565b8280016001018555821562000287579182015b82811115620002875782518255916020019190600101906200026a565b506200029592915062000299565b5090565b5b808211156200029557600081556001016200029a565b600082601f830112620002c1578081fd5b81516001600160401b0380821115620002de57620002de62000454565b604051601f8301601f19908116603f0116810190828211818310171562000309576200030962000454565b8160405283815260209250868385880101111562000325578485fd5b8491505b8382101562000348578582018301518183018401529082019062000329565b838211156200035957848385830101525b9695505050505050565b6000806000806080858703121562000379578384fd5b84516001600160401b038082111562000390578586fd5b6200039e88838901620002b0565b95506020870151915080821115620003b4578485fd5b620003c288838901620002b0565b94506040870151915080821115620003d8578384fd5b620003e688838901620002b0565b93506060870151915080821115620003fc578283fd5b506200040b87828801620002b0565b91505092959194509250565b600181811c908216806200042c57607f821691505b602082108114156200044e57634e487b7160e01b600052602260045260246000fd5b50919050565b634e487b7160e01b600052604160045260246000fd5b612f26806200047a6000396000f3fe6080604052600436106102f25760003560e01c80636352211e1161018f578063b88d4fde116100e1578063d5abeb011161008a578063edec5f2711610064578063edec5f2714610816578063f2c4ce1e14610836578063f2fde38b1461085657600080fd5b8063d5abeb0114610797578063da3ef23f146107ad578063e985e9c5146107cd57600080fd5b8063c6682862116100bb578063c668286214610742578063c87b56dd14610757578063d0eb26b01461077757600080fd5b8063b88d4fde146106ec578063ba4e5c491461070c578063ba7d2c761461072c57600080fd5b80638da5cb5b11610143578063a0712d681161011d578063a0712d68146106a4578063a22cb465146106b7578063a475b5dd146106d757600080fd5b80638da5cb5b1461065157806395d89b411461066f5780639c70b5121461068457600080fd5b806370a082311161017457806370a08231146105fc578063715018a61461061c5780637f00c7a61461063157600080fd5b80636352211e146105c75780636c0360eb146105e757600080fd5b80632f745c5911610248578063438b6300116101fc57806351830227116101d6578063518302271461056e57806355f804b31461058d5780635c975abb146105ad57600080fd5b8063438b63001461050157806344a0d68a1461052e5780634f6ccce71461054e57600080fd5b80633c9527641161022d5780633c952764146104b95780633ccfd60b146104d957806342842e0e146104e157600080fd5b80632f745c59146104795780633af32abf1461049957600080fd5b8063095ea7b3116102aa57806318cae2691161028457806318cae26914610416578063239c70ae1461044357806323b872dd1461045957600080fd5b8063095ea7b3146103bd57806313faede6146103dd57806318160ddd1461040157600080fd5b806306fdde03116102db57806306fdde031461034e578063081812fc14610370578063081c8c44146103a857600080fd5b806301ffc9a7146102f757806302329a291461032c575b600080fd5b34801561030357600080fd5b50610317610312366004612b69565b610876565b60405190151581526020015b60405180910390f35b34801561033857600080fd5b5061034c610347366004612b4f565b6108ba565b005b34801561035a57600080fd5b5061036361091a565b6040516103239190612d6d565b34801561037c57600080fd5b5061039061038b366004612be7565b6109ac565b6040516001600160a01b039091168152602001610323565b3480156103b457600080fd5b50610363610a41565b3480156103c957600080fd5b5061034c6103d8366004612ab6565b610acf565b3480156103e957600080fd5b506103f3600e5481565b604051908152602001610323565b34801561040d57600080fd5b506008546103f3565b34801561042257600080fd5b506103f361043136600461298d565b60146020526000908152604090205481565b34801561044f57600080fd5b506103f360105481565b34801561046557600080fd5b5061034c6104743660046129d9565b610c01565b34801561048557600080fd5b506103f3610494366004612ab6565b610c88565b3480156104a557600080fd5b506103176104b436600461298d565b610d30565b3480156104c557600080fd5b5061034c6104d4366004612b4f565b610da8565b61034c610e0c565b3480156104ed57600080fd5b5061034c6104fc3660046129d9565b610f46565b34801561050d57600080fd5b5061052161051c36600461298d565b610f61565b6040516103239190612d29565b34801561053a57600080fd5b5061034c610549366004612be7565b61101f565b34801561055a57600080fd5b506103f3610569366004612be7565b61106c565b34801561057a57600080fd5b5060125461031790610100900460ff1681565b34801561059957600080fd5b5061034c6105a8366004612ba1565b61111e565b3480156105b957600080fd5b506012546103179060ff1681565b3480156105d357600080fd5b506103906105e2366004612be7565b611179565b3480156105f357600080fd5b50610363611204565b34801561060857600080fd5b506103f361061736600461298d565b611211565b34801561062857600080fd5b5061034c6112ab565b34801561063d57600080fd5b5061034c61064c366004612be7565b6112ff565b34801561065d57600080fd5b50600a546001600160a01b0316610390565b34801561067b57600080fd5b5061036361134c565b34801561069057600080fd5b506012546103179062010000900460ff1681565b61034c6106b2366004612be7565b61135b565b3480156106c357600080fd5b5061034c6106d2366004612a8d565b611674565b3480156106e357600080fd5b5061034c61167f565b3480156106f857600080fd5b5061034c610707366004612a14565b6116d8565b34801561071857600080fd5b50610390610727366004612be7565b611766565b34801561073857600080fd5b506103f360115481565b34801561074e57600080fd5b50610363611790565b34801561076357600080fd5b50610363610772366004612be7565b61179d565b34801561078357600080fd5b5061034c610792366004612be7565b61192a565b3480156107a357600080fd5b506103f3600f5481565b3480156107b957600080fd5b5061034c6107c8366004612ba1565b611977565b3480156107d957600080fd5b506103176107e83660046129a7565b6001600160a01b03918216600090815260056020908152604080832093909416825291909152205460ff1690565b34801561082257600080fd5b5061034c610831366004612adf565b6119d2565b34801561084257600080fd5b5061034c610851366004612ba1565b611a32565b34801561086257600080fd5b5061034c61087136600461298d565b611a8d565b60006001600160e01b031982167f780e9d630000000000000000000000000000000000000000000000000000000014806108b457506108b482611b5d565b92915050565b600a546001600160a01b031633146109075760405162461bcd60e51b81526020600482018190526024820152600080516020612ed183398151915260448201526064015b60405180910390fd5b6012805460ff1916911515919091179055565b60606000805461092990612e0e565b80601f016020809104026020016040519081016040528092919081815260200182805461095590612e0e565b80156109a25780601f10610977576101008083540402835291602001916109a2565b820191906000526020600020905b81548152906001019060200180831161098557829003601f168201915b5050505050905090565b6000818152600260205260408120546001600160a01b0316610a255760405162461bcd60e51b815260206004820152602c60248201527f4552433732313a20617070726f76656420717565727920666f72206e6f6e657860448201526b34b9ba32b73a103a37b5b2b760a11b60648201526084016108fe565b506000908152600460205260409020546001600160a01b031690565b600d8054610a4e90612e0e565b80601f0160208091040260200160405190810160405280929190818152602001828054610a7a90612e0e565b8015610ac75780601f10610a9c57610100808354040283529160200191610ac7565b820191906000526020600020905b815481529060010190602001808311610aaa57829003601f168201915b505050505081565b6000610ada82611179565b9050806001600160a01b0316836001600160a01b03161415610b645760405162461bcd60e51b815260206004820152602160248201527f4552433732313a20617070726f76616c20746f2063757272656e74206f776e6560448201527f720000000000000000000000000000000000000000000000000000000000000060648201526084016108fe565b336001600160a01b0382161480610b805750610b8081336107e8565b610bf25760405162461bcd60e51b815260206004820152603860248201527f4552433732313a20617070726f76652063616c6c6572206973206e6f74206f7760448201527f6e6572206e6f7220617070726f76656420666f7220616c6c000000000000000060648201526084016108fe565b610bfc8383611bf8565b505050565b610c0b3382611c66565b610c7d5760405162461bcd60e51b815260206004820152603160248201527f4552433732313a207472616e736665722063616c6c6572206973206e6f74206f60448201527f776e6572206e6f7220617070726f76656400000000000000000000000000000060648201526084016108fe565b610bfc838383611d5d565b6000610c9383611211565b8210610d075760405162461bcd60e51b815260206004820152602b60248201527f455243373231456e756d657261626c653a206f776e657220696e646578206f7560448201527f74206f6620626f756e647300000000000000000000000000000000000000000060648201526084016108fe565b506001600160a01b03919091166000908152600660209081526040808320938352929052205490565b6000805b601354811015610d9f57826001600160a01b031660138281548110610d6957634e487b7160e01b600052603260045260246000fd5b6000918252602090912001546001600160a01b03161415610d8d5750600192915050565b80610d9781612e49565b915050610d34565b50600092915050565b600a546001600160a01b03163314610df05760405162461bcd60e51b81526020600482018190526024820152600080516020612ed183398151915260448201526064016108fe565b60128054911515620100000262ff000019909216919091179055565b600a546001600160a01b03163314610e545760405162461bcd60e51b81526020600482018190526024820152600080516020612ed183398151915260448201526064016108fe565b60007349d23d4ad43fbabd5e9f268c115a5e6e4d17ed5e6064610e78476002612dac565b610e829190612d98565b604051600081818185875af1925050503d8060008114610ebe576040519150601f19603f3d011682016040523d82523d6000602084013e610ec3565b606091505b5050905080610ed157600080fd5b6000610ee5600a546001600160a01b031690565b6001600160a01b03164760405160006040518083038185875af1925050503d8060008114610f2f576040519150601f19603f3d011682016040523d82523d6000602084013e610f34565b606091505b5050905080610f4257600080fd5b5050565b610bfc838383604051806020016040528060008152506116d8565b60606000610f6e83611211565b905060008167ffffffffffffffff811115610f9957634e487b7160e01b600052604160045260246000fd5b604051908082528060200260200182016040528015610fc2578160200160208202803683370190505b50905060005b8281101561101757610fda8582610c88565b828281518110610ffa57634e487b7160e01b600052603260045260246000fd5b60209081029190910101528061100f81612e49565b915050610fc8565b509392505050565b600a546001600160a01b031633146110675760405162461bcd60e51b81526020600482018190526024820152600080516020612ed183398151915260448201526064016108fe565b600e55565b600061107760085490565b82106110eb5760405162461bcd60e51b815260206004820152602c60248201527f455243373231456e756d657261626c653a20676c6f62616c20696e646578206f60448201527f7574206f6620626f756e6473000000000000000000000000000000000000000060648201526084016108fe565b6008828154811061110c57634e487b7160e01b600052603260045260246000fd5b90600052602060002001549050919050565b600a546001600160a01b031633146111665760405162461bcd60e51b81526020600482018190526024820152600080516020612ed183398151915260448201526064016108fe565b8051610f4290600b9060208401906127e1565b6000818152600260205260408120546001600160a01b0316806108b45760405162461bcd60e51b815260206004820152602960248201527f4552433732313a206f776e657220717565727920666f72206e6f6e657869737460448201527f656e7420746f6b656e000000000000000000000000000000000000000000000060648201526084016108fe565b600b8054610a4e90612e0e565b60006001600160a01b03821661128f5760405162461bcd60e51b815260206004820152602a60248201527f4552433732313a2062616c616e636520717565727920666f7220746865207a6560448201527f726f20616464726573730000000000000000000000000000000000000000000060648201526084016108fe565b506001600160a01b031660009081526003602052604090205490565b600a546001600160a01b031633146112f35760405162461bcd60e51b81526020600482018190526024820152600080516020612ed183398151915260448201526064016108fe565b6112fd6000611f35565b565b600a546001600160a01b031633146113475760405162461bcd60e51b81526020600482018190526024820152600080516020612ed183398151915260448201526064016108fe565b601055565b60606001805461092990612e0e565b60125460ff16156113ae5760405162461bcd60e51b815260206004820152601660248201527f74686520636f6e7472616374206973207061757365640000000000000000000060448201526064016108fe565b60006113b960085490565b90506000821161140b5760405162461bcd60e51b815260206004820152601b60248201527f6e65656420746f206d696e74206174206c656173742031204e4654000000000060448201526064016108fe565b6010548211156114825760405162461bcd60e51b8152602060048201526024808201527f6d6178206d696e7420616d6f756e74207065722073657373696f6e206578636560448201527f656465640000000000000000000000000000000000000000000000000000000060648201526084016108fe565b600f5461148f8383612d80565b11156114dd5760405162461bcd60e51b815260206004820152601660248201527f6d6178204e4654206c696d69742065786365656465640000000000000000000060448201526064016108fe565b600a546001600160a01b031633146116245760125462010000900460ff161515600114156115c75761150e33610d30565b61155a5760405162461bcd60e51b815260206004820152601760248201527f75736572206973206e6f742077686974656c697374656400000000000000000060448201526064016108fe565b336000908152601460205260409020546011546115778483612d80565b11156115c55760405162461bcd60e51b815260206004820152601c60248201527f6d6178204e46542070657220616464726573732065786365656465640000000060448201526064016108fe565b505b81600e546115d59190612dac565b3410156116245760405162461bcd60e51b815260206004820152601260248201527f696e73756666696369656e742066756e6473000000000000000000000000000060448201526064016108fe565b60015b828111610bfc5733600090815260146020526040812080549161164983612e49565b9091555061166290503361165d8385612d80565b611f87565b8061166c81612e49565b915050611627565b610f42338383611fa1565b600a546001600160a01b031633146116c75760405162461bcd60e51b81526020600482018190526024820152600080516020612ed183398151915260448201526064016108fe565b6012805461ff001916610100179055565b6116e23383611c66565b6117545760405162461bcd60e51b815260206004820152603160248201527f4552433732313a207472616e736665722063616c6c6572206973206e6f74206f60448201527f776e6572206e6f7220617070726f76656400000000000000000000000000000060648201526084016108fe565b61176084848484612070565b50505050565b6013818154811061177657600080fd5b6000918252602090912001546001600160a01b0316905081565b600c8054610a4e90612e0e565b6000818152600260205260409020546060906001600160a01b031661182a5760405162461bcd60e51b815260206004820152602f60248201527f4552433732314d657461646174613a2055524920717565727920666f72206e6f60448201527f6e6578697374656e7420746f6b656e000000000000000000000000000000000060648201526084016108fe565b601254610100900460ff166118cb57600d805461184690612e0e565b80601f016020809104026020016040519081016040528092919081815260200182805461187290612e0e565b80156118bf5780601f10611894576101008083540402835291602001916118bf565b820191906000526020600020905b8154815290600101906020018083116118a257829003601f168201915b50505050509050919050565b60006118d56120ee565b905060008151116118f55760405180602001604052806000815250611923565b806118ff846120fd565b600c60405160200161191393929190612c2b565b6040516020818303038152906040525b9392505050565b600a546001600160a01b031633146119725760405162461bcd60e51b81526020600482018190526024820152600080516020612ed183398151915260448201526064016108fe565b601155565b600a546001600160a01b031633146119bf5760405162461bcd60e51b81526020600482018190526024820152600080516020612ed183398151915260448201526064016108fe565b8051610f4290600c9060208401906127e1565b600a546001600160a01b03163314611a1a5760405162461bcd60e51b81526020600482018190526024820152600080516020612ed183398151915260448201526064016108fe565b611a2660136000612865565b610bfc60138383612883565b600a546001600160a01b03163314611a7a5760405162461bcd60e51b81526020600482018190526024820152600080516020612ed183398151915260448201526064016108fe565b8051610f4290600d9060208401906127e1565b600a546001600160a01b03163314611ad55760405162461bcd60e51b81526020600482018190526024820152600080516020612ed183398151915260448201526064016108fe565b6001600160a01b038116611b515760405162461bcd60e51b815260206004820152602660248201527f4f776e61626c653a206e6577206f776e657220697320746865207a65726f206160448201527f646472657373000000000000000000000000000000000000000000000000000060648201526084016108fe565b611b5a81611f35565b50565b60006001600160e01b031982167f80ac58cd000000000000000000000000000000000000000000000000000000001480611bc057506001600160e01b031982167f5b5e139f00000000000000000000000000000000000000000000000000000000145b806108b457507f01ffc9a7000000000000000000000000000000000000000000000000000000006001600160e01b03198316146108b4565b600081815260046020526040902080546001600160a01b0319166001600160a01b0384169081179091558190611c2d82611179565b6001600160a01b03167f8c5be1e5ebec7d5bd14f71427d1e84f3dd0314c0f7b2291e5b200ac8c7c3b92560405160405180910390a45050565b6000818152600260205260408120546001600160a01b0316611cdf5760405162461bcd60e51b815260206004820152602c60248201527f4552433732313a206f70657261746f7220717565727920666f72206e6f6e657860448201526b34b9ba32b73a103a37b5b2b760a11b60648201526084016108fe565b6000611cea83611179565b9050806001600160a01b0316846001600160a01b03161480611d255750836001600160a01b0316611d1a846109ac565b6001600160a01b0316145b80611d5557506001600160a01b0380821660009081526005602090815260408083209388168352929052205460ff165b949350505050565b826001600160a01b0316611d7082611179565b6001600160a01b031614611dec5760405162461bcd60e51b815260206004820152602560248201527f4552433732313a207472616e736665722066726f6d20696e636f72726563742060448201527f6f776e657200000000000000000000000000000000000000000000000000000060648201526084016108fe565b6001600160a01b038216611e675760405162461bcd60e51b8152602060048201526024808201527f4552433732313a207472616e7366657220746f20746865207a65726f2061646460448201527f726573730000000000000000000000000000000000000000000000000000000060648201526084016108fe565b611e7283838361224b565b611e7d600082611bf8565b6001600160a01b0383166000908152600360205260408120805460019290611ea6908490612dcb565b90915550506001600160a01b0382166000908152600360205260408120805460019290611ed4908490612d80565b909155505060008181526002602052604080822080546001600160a01b0319166001600160a01b0386811691821790925591518493918716917fddf252ad1be2c89b69c2b068fc378daa952ba7f163c4a11628f55a4df523b3ef91a4505050565b600a80546001600160a01b038381166001600160a01b0319831681179093556040519116919082907f8be0079c531659141344cd1fd0a4f28419497f9722a3daafe3b4186f6b6457e090600090a35050565b610f42828260405180602001604052806000815250612303565b816001600160a01b0316836001600160a01b031614156120035760405162461bcd60e51b815260206004820152601960248201527f4552433732313a20617070726f766520746f2063616c6c65720000000000000060448201526064016108fe565b6001600160a01b03838116600081815260056020908152604080832094871680845294825291829020805460ff191686151590811790915591519182527f17307eab39ab6107e8899845ad3d59bd9653f200f220920489ca2b5937696c31910160405180910390a3505050565b61207b848484611d5d565b61208784848484612381565b6117605760405162461bcd60e51b815260206004820152603260248201527f4552433732313a207472616e7366657220746f206e6f6e20455243373231526560448201527131b2b4bb32b91034b6b83632b6b2b73a32b960711b60648201526084016108fe565b6060600b805461092990612e0e565b60608161213d57505060408051808201909152600181527f3000000000000000000000000000000000000000000000000000000000000000602082015290565b8160005b8115612167578061215181612e49565b91506121609050600a83612d98565b9150612141565b60008167ffffffffffffffff81111561219057634e487b7160e01b600052604160045260246000fd5b6040519080825280601f01601f1916602001820160405280156121ba576020820181803683370190505b5090505b8415611d55576121cf600183612dcb565b91506121dc600a86612e64565b6121e7906030612d80565b60f81b81838151811061220a57634e487b7160e01b600052603260045260246000fd5b60200101907effffffffffffffffffffffffffffffffffffffffffffffffffffffffffffff1916908160001a905350612244600a86612d98565b94506121be565b6001600160a01b0383166122a6576122a181600880546000838152600960205260408120829055600182018355919091527ff3f7a9fe364faab93b216da50a3214154f22a0a2b415b23a84c8169e8b636ee30155565b6122c9565b816001600160a01b0316836001600160a01b0316146122c9576122c983826124d9565b6001600160a01b0382166122e057610bfc81612576565b826001600160a01b0316826001600160a01b031614610bfc57610bfc828261264f565b61230d8383612693565b61231a6000848484612381565b610bfc5760405162461bcd60e51b815260206004820152603260248201527f4552433732313a207472616e7366657220746f206e6f6e20455243373231526560448201527131b2b4bb32b91034b6b83632b6b2b73a32b960711b60648201526084016108fe565b60006001600160a01b0384163b156124ce57604051630a85bd0160e11b81526001600160a01b0385169063150b7a02906123c5903390899088908890600401612ced565b602060405180830381600087803b1580156123df57600080fd5b505af192505050801561240f575060408051601f3d908101601f1916820190925261240c91810190612b85565b60015b6124b4573d80801561243d576040519150601f19603f3d011682016040523d82523d6000602084013e612442565b606091505b5080516124ac5760405162461bcd60e51b815260206004820152603260248201527f4552433732313a207472616e7366657220746f206e6f6e20455243373231526560448201527131b2b4bb32b91034b6b83632b6b2b73a32b960711b60648201526084016108fe565b805181602001fd5b6001600160e01b031916630a85bd0160e11b149050611d55565b506001949350505050565b600060016124e684611211565b6124f09190612dcb565b600083815260076020526040902054909150808214612543576001600160a01b03841660009081526006602090815260408083208584528252808320548484528184208190558352600790915290208190555b5060009182526007602090815260408084208490556001600160a01b039094168352600681528383209183525290812055565b60085460009061258890600190612dcb565b600083815260096020526040812054600880549394509092849081106125be57634e487b7160e01b600052603260045260246000fd5b9060005260206000200154905080600883815481106125ed57634e487b7160e01b600052603260045260246000fd5b600091825260208083209091019290925582815260099091526040808220849055858252812055600880548061263357634e487b7160e01b600052603160045260246000fd5b6001900381819060005260206000200160009055905550505050565b600061265a83611211565b6001600160a01b039093166000908152600660209081526040808320868452825280832085905593825260079052919091209190915550565b6001600160a01b0382166126e95760405162461bcd60e51b815260206004820181905260248201527f4552433732313a206d696e7420746f20746865207a65726f206164647265737360448201526064016108fe565b6000818152600260205260409020546001600160a01b03161561274e5760405162461bcd60e51b815260206004820152601c60248201527f4552433732313a20746f6b656e20616c7265616479206d696e7465640000000060448201526064016108fe565b61275a6000838361224b565b6001600160a01b0382166000908152600360205260408120805460019290612783908490612d80565b909155505060008181526002602052604080822080546001600160a01b0319166001600160a01b03861690811790915590518392907fddf252ad1be2c89b69c2b068fc378daa952ba7f163c4a11628f55a4df523b3ef908290a45050565b8280546127ed90612e0e565b90600052602060002090601f01602090048101928261280f5760008555612855565b82601f1061282857805160ff1916838001178555612855565b82800160010185558215612855579182015b8281111561285557825182559160200191906001019061283a565b506128619291506128d6565b5090565b5080546000825590600052602060002090810190611b5a91906128d6565b828054828255906000526020600020908101928215612855579160200282015b828111156128555781546001600160a01b0319166001600160a01b038435161782556020909201916001909101906128a3565b5b8082111561286157600081556001016128d7565b600067ffffffffffffffff8084111561290657612906612ea4565b604051601f8501601f19908116603f0116810190828211818310171561292e5761292e612ea4565b8160405280935085815286868601111561294757600080fd5b858560208301376000602087830101525050509392505050565b80356001600160a01b038116811461297857600080fd5b919050565b8035801515811461297857600080fd5b60006020828403121561299e578081fd5b61192382612961565b600080604083850312156129b9578081fd5b6129c283612961565b91506129d060208401612961565b90509250929050565b6000806000606084860312156129ed578081fd5b6129f684612961565b9250612a0460208501612961565b9150604084013590509250925092565b60008060008060808587031215612a29578081fd5b612a3285612961565b9350612a4060208601612961565b925060408501359150606085013567ffffffffffffffff811115612a62578182fd5b8501601f81018713612a72578182fd5b612a81878235602084016128eb565b91505092959194509250565b60008060408385031215612a9f578182fd5b612aa883612961565b91506129d06020840161297d565b60008060408385031215612ac8578182fd5b612ad183612961565b946020939093013593505050565b60008060208385031215612af1578182fd5b823567ffffffffffffffff80821115612b08578384fd5b818501915085601f830112612b1b578384fd5b813581811115612b29578485fd5b8660208260051b8501011115612b3d578485fd5b60209290920196919550909350505050565b600060208284031215612b60578081fd5b6119238261297d565b600060208284031215612b7a578081fd5b813561192381612eba565b600060208284031215612b96578081fd5b815161192381612eba565b600060208284031215612bb2578081fd5b813567ffffffffffffffff811115612bc8578182fd5b8201601f81018413612bd8578182fd5b611d55848235602084016128eb565b600060208284031215612bf8578081fd5b5035919050565b60008151808452612c17816020860160208601612de2565b601f01601f19169290920160200192915050565b600084516020612c3e8285838a01612de2565b855191840191612c518184848a01612de2565b85549201918390600181811c9080831680612c6d57607f831692505b858310811415612c8b57634e487b7160e01b88526022600452602488fd5b808015612c9f5760018114612cb057612cdc565b60ff19851688528388019550612cdc565b60008b815260209020895b85811015612cd45781548a820152908401908801612cbb565b505083880195505b50939b9a5050505050505050505050565b60006001600160a01b03808716835280861660208401525083604083015260806060830152612d1f6080830184612bff565b9695505050505050565b6020808252825182820181905260009190848201906040850190845b81811015612d6157835183529284019291840191600101612d45565b50909695505050505050565b6020815260006119236020830184612bff565b60008219821115612d9357612d93612e78565b500190565b600082612da757612da7612e8e565b500490565b6000816000190483118215151615612dc657612dc6612e78565b500290565b600082821015612ddd57612ddd612e78565b500390565b60005b83811015612dfd578181015183820152602001612de5565b838111156117605750506000910152565b600181811c90821680612e2257607f821691505b60208210811415612e4357634e487b7160e01b600052602260045260246000fd5b50919050565b6000600019821415612e5d57612e5d612e78565b5060010190565b600082612e7357612e73612e8e565b500690565b634e487b7160e01b600052601160045260246000fd5b634e487b7160e01b600052601260045260246000fd5b634e487b7160e01b600052604160045260246000fd5b6001600160e01b031981168114611b5a57600080fdfe4f776e61626c653a2063616c6c6572206973206e6f7420746865206f776e6572a2646970667358221220d19b14976bc8c6c57c1dab6d236f6cdd2eed9d89140d05a160099f8bf98914ea64736f6c634300080400334f776e61626c653a2063616c6c6572206973206e6f7420746865206f776e6572",
  "linkReferences": {},
  "deployedLinkReferences": {}
}