{
  "_format": "hh-sol-artifact-1",
  "contractName": "Gallery",
  "sourceName": "contracts/NFTstacking.sol",
  "abi": [
    {
      "inputs": [
        {
          "internalType": "address",
          "name": "_jungle",
          "type": "address"
        },
        {
          "internalType": "address",
          "name": "_jtt",
          "type": "address"
        }
      ],
      "stateMutability": "nonpayable",
      "type": "constructor"
    },
    {
      "anonymous": false,
      "inputs": [
        {
          "indexed": true,
          "internalType": "address",
          "name": "previousOwner",
          "type": "address"
        },
        {
          "indexed": true,
          "internalType": "address",
          "name": "newOwner",
          "type": "address"
        }
      ],
      "name": "OwnershipTransferred",
      "type": "event"
    },
    {
      "inputs": [
        {
          "internalType": "address",
          "name": "account",
          "type": "address"
        },
        {
          "internalType": "uint16[]",
          "name": "tokenIds",
          "type": "uint16[]"
        }
      ],
      "name": "addToGallery",
      "outputs": [],
      "stateMutability": "nonpayable",
      "type": "function"
    },
    {
      "inputs": [
        {
          "internalType": "uint16[]",
          "name": "tokenIds",
          "type": "uint16[]"
        },
        {
          "internalType": "bool",
          "name": "unstake",
          "type": "bool"
        }
      ],
      "name": "claimFromGallery",
      "outputs": [],
      "stateMutability": "nonpayable",
      "type": "function"
    },
    {
      "inputs": [
        {
          "internalType": "address",
          "name": "",
          "type": "address"
        },
        {
          "internalType": "address",
          "name": "from",
          "type": "address"
        },
        {
          "internalType": "uint256",
          "name": "",
          "type": "uint256"
        },
        {
          "internalType": "bytes",
          "name": "",
          "type": "bytes"
        }
      ],
      "name": "onERC721Received",
      "outputs": [
        {
          "internalType": "bytes4",
          "name": "",
          "type": "bytes4"
        }
      ],
      "stateMutability": "pure",
      "type": "function"
    },
    {
      "inputs": [],
      "name": "owner",
      "outputs": [
        {
          "internalType": "address",
          "name": "",
          "type": "address"
        }
      ],
      "stateMutability": "view",
      "type": "function"
    },
    {
      "inputs": [],
      "name": "renounceOwnership",
      "outputs": [],
      "stateMutability": "nonpayable",
      "type": "function"
    },
    {
      "inputs": [],
      "name": "rescueEnabled",
      "outputs": [
        {
          "internalType": "bool",
          "name": "",
          "type": "bool"
        }
      ],
      "stateMutability": "view",
      "type": "function"
    },
    {
      "inputs": [
        {
          "internalType": "uint256",
          "name": "",
          "type": "uint256"
        }
      ],
      "name": "stackTime",
      "outputs": [
        {
          "internalType": "uint256",
          "name": "",
          "type": "uint256"
        }
      ],
      "stateMutability": "view",
      "type": "function"
    },
    {
      "inputs": [
        {
          "internalType": "address",
          "name": "newOwner",
          "type": "address"
        }
      ],
      "name": "transferOwnership",
      "outputs": [],
      "stateMutability": "nonpayable",
      "type": "function"
    },
    {
      "inputs": [
        {
          "internalType": "uint256",
          "name": "",
          "type": "uint256"
        },
        {
          "internalType": "uint256",
          "name": "",
          "type": "uint256"
        }
      ],
      "name": "unstackDate",
      "outputs": [
        {
          "internalType": "uint256",
          "name": "",
          "type": "uint256"
        }
      ],
      "stateMutability": "view",
      "type": "function"
    }
  ],
  "bytecode": "0x60076101009081526101c2610120526080908152600f6101409081526102a36101605260a052601e6101809081526103846101a05260c052610200604052602d6101c09081526103e86101e05260e0526200005e906004908162000126565b506005805460ff191690553480156200007657600080fd5b50604051620011053803806200110583398101604081905262000099916200024e565b620000a433620000d6565b600180546001600160a01b039384166001600160a01b0319918216179091556002805492909316911617905562000285565b600080546001600160a01b038381166001600160a01b0319831681178455604051919092169283917f8be0079c531659141344cd1fd0a4f28419497f9722a3daafe3b4186f6b6457e09190a35050565b82805482825590600052602060002090810192821562000172579160200282015b828111156200017257825162000161908390600262000184565b509160200191906001019062000147565b5062000180929150620001d6565b5090565b828054828255906000526020600020908101928215620001c8579160200282015b82811115620001c8578251829061ffff16905591602001919060010190620001a5565b5062000180929150620001f7565b8082111562000180576000620001ed82826200020e565b50600101620001d6565b5b80821115620001805760008155600101620001f8565b50805460008255906000526020600020908101906200022e9190620001f7565b50565b80516001600160a01b03811681146200024957600080fd5b919050565b6000806040838503121562000261578182fd5b6200026c8362000231565b91506200027c6020840162000231565b90509250929050565b610e7080620002956000396000f3fe608060405234801561001057600080fd5b50600436106100a35760003560e01c806339db714f116100765780638da5cb5b1161005b5780638da5cb5b146101545780638e9e63261461016f578063f2fde38b1461018257600080fd5b806339db714f1461012f578063715018a61461014c57600080fd5b8063150b7a02146100a85780631d65363c146100d95780632000b712146100ee578063374efba71461010f575b600080fd5b6100bb6100b6366004610bd7565b610195565b6040516001600160e01b031990911681526020015b60405180910390f35b6100ec6100e7366004610c71565b610244565b005b6101016100fc366004610d6f565b610508565b6040519081526020016100d0565b61010161011d366004610d57565b60036020526000908152604090205481565b60055461013c9060ff1681565b60405190151581526020016100d0565b6100ec610545565b6000546040516001600160a01b0390911681526020016100d0565b6100ec61017d366004610cc4565b6105ab565b6100ec610190366004610b98565b610a04565b60006001600160a01b038516156102195760405162461bcd60e51b815260206004820152602660248201527f43616e6e6f742073656e6420746f6b656e7320746f2047616c6c65727920646960448201527f726563746c79000000000000000000000000000000000000000000000000000060648201526084015b60405180910390fd5b507f150b7a020000000000000000000000000000000000000000000000000000000095945050505050565b6001600160a01b03831633148061026e57506001546001600160a01b0316336001600160a01b0316145b6102ba5760405162461bcd60e51b815260206004820152601b60248201527f444f4e2754204749564520594f555220544f4b454e53204157415900000000006044820152606401610210565b60005b81811015610502576001546001600160a01b0316336001600160a01b0316146104b95760015433906001600160a01b0316636352211e85858581811061031357634e487b7160e01b600052603260045260246000fd5b90506020020160208101906103289190610d35565b6040516001600160e01b031960e084901b16815261ffff909116600482015260240160206040518083038186803b15801561036257600080fd5b505afa158015610376573d6000803e3d6000fd5b505050506040513d601f19601f8201168201806040525081019061039a9190610bbb565b6001600160a01b0316146103f05760405162461bcd60e51b815260206004820152600d60248201527f41494e5420594f20544f4b454e000000000000000000000000000000000000006044820152606401610210565b6001546001600160a01b03166323b872dd333086868681811061042357634e487b7160e01b600052603260045260246000fd5b90506020020160208101906104389190610d35565b6040516001600160e01b031960e086901b1681526001600160a01b03938416600482015292909116602483015261ffff166044820152606401600060405180830381600087803b15801561048b57600080fd5b505af115801561049f573d6000803e3d6000fd5b5050506000828152600360205260409020429055506104f0565b8282828181106104d957634e487b7160e01b600052603260045260246000fd5b90506020020160208101906104ee9190610d35565b505b806104fa81610de6565b9150506102bd565b50505050565b6004828154811061051857600080fd5b90600052602060002001818154811061053057600080fd5b90600052602060002001600091509150505481565b6000546001600160a01b0316331461059f5760405162461bcd60e51b815260206004820181905260248201527f4f776e61626c653a2063616c6c6572206973206e6f7420746865206f776e65726044820152606401610210565b6105a96000610ae6565b565b600160009054906101000a90046001600160a01b03166001600160a01b0316635c975abb6040518163ffffffff1660e01b815260040160206040518083038186803b1580156105f957600080fd5b505afa15801561060d573d6000803e3d6000fd5b505050506040513d601f19601f820116820180604052508101906106319190610d19565b1561067e5760405162461bcd60e51b815260206004820152601060248201527f434f4e54524143542053544f50504544000000000000000000000000000000006044820152606401610210565b80156109ff5760005b828110156105025760008181526003602052604081205462015180906106ad9042610dcf565b6106b79190610d90565b90506000805b6004548110156109e957600481815481106106e857634e487b7160e01b600052603260045260246000fd5b9060005260206000200160008154811061071257634e487b7160e01b600052603260045260246000fd5b90600052602060002001548311156107a75760045461073390600190610dcf565b8114156107a2576004818154811061075b57634e487b7160e01b600052603260045260246000fd5b9060005260206000200160018154811061078557634e487b7160e01b600052603260045260246000fd5b90600052602060002001548361079b9190610db0565b915061089d565b6109d7565b600481815481106107c857634e487b7160e01b600052603260045260246000fd5b906000526020600020016000815481106107f257634e487b7160e01b600052603260045260246000fd5b9060005260206000200154831415610825576004818154811061075b57634e487b7160e01b600052603260045260246000fd5b8061082f576109e9565b600461083c600183610dcf565b8154811061085a57634e487b7160e01b600052603260045260246000fd5b9060005260206000200160018154811061088457634e487b7160e01b600052603260045260246000fd5b90600052602060002001548361089a9190610db0565b91505b6001546001600160a01b031663b88d4fde30338a8a898181106108d057634e487b7160e01b600052603260045260246000fd5b90506020020160208101906108e59190610d35565b6040516001600160e01b031960e086901b1681526001600160a01b03938416600482015292909116602483015261ffff166044820152608060648201526000608482015260a401600060405180830381600087803b15801561094657600080fd5b505af115801561095a573d6000803e3d6000fd5b50506002546001600160a01b031691506340c10f199050336040516001600160e01b031960e084901b1681526001600160a01b03909116600482015260248101859052604401600060405180830381600087803b1580156109ba57600080fd5b505af11580156109ce573d6000803e3d6000fd5b505050506109e9565b806109e181610de6565b9150506106bd565b50505080806109f790610de6565b915050610687565b505050565b6000546001600160a01b03163314610a5e5760405162461bcd60e51b815260206004820181905260248201527f4f776e61626c653a2063616c6c6572206973206e6f7420746865206f776e65726044820152606401610210565b6001600160a01b038116610ada5760405162461bcd60e51b815260206004820152602660248201527f4f776e61626c653a206e6577206f776e657220697320746865207a65726f206160448201527f64647265737300000000000000000000000000000000000000000000000000006064820152608401610210565b610ae381610ae6565b50565b600080546001600160a01b038381167fffffffffffffffffffffffff0000000000000000000000000000000000000000831681178455604051919092169283917f8be0079c531659141344cd1fd0a4f28419497f9722a3daafe3b4186f6b6457e09190a35050565b60008083601f840112610b5f578182fd5b50813567ffffffffffffffff811115610b76578182fd5b6020830191508360208260051b8501011115610b9157600080fd5b9250929050565b600060208284031215610ba9578081fd5b8135610bb481610e17565b9392505050565b600060208284031215610bcc578081fd5b8151610bb481610e17565b600080600080600060808688031215610bee578081fd5b8535610bf981610e17565b94506020860135610c0981610e17565b935060408601359250606086013567ffffffffffffffff80821115610c2c578283fd5b818801915088601f830112610c3f578283fd5b813581811115610c4d578384fd5b896020828501011115610c5e578384fd5b9699959850939650602001949392505050565b600080600060408486031215610c85578283fd5b8335610c9081610e17565b9250602084013567ffffffffffffffff811115610cab578283fd5b610cb786828701610b4e565b9497909650939450505050565b600080600060408486031215610cd8578283fd5b833567ffffffffffffffff811115610cee578384fd5b610cfa86828701610b4e565b9094509250506020840135610d0e81610e2c565b809150509250925092565b600060208284031215610d2a578081fd5b8151610bb481610e2c565b600060208284031215610d46578081fd5b813561ffff81168114610bb4578182fd5b600060208284031215610d68578081fd5b5035919050565b60008060408385031215610d81578182fd5b50508035926020909101359150565b600082610dab57634e487b7160e01b81526012600452602481fd5b500490565b6000816000190483118215151615610dca57610dca610e01565b500290565b600082821015610de157610de1610e01565b500390565b6000600019821415610dfa57610dfa610e01565b5060010190565b634e487b7160e01b600052601160045260246000fd5b6001600160a01b0381168114610ae357600080fd5b8015158114610ae357600080fdfea26469706673582212200153eea177ecab127170f761cce7519f4273b2f25ac3b011e58485618d83436264736f6c63430008040033",
  "linkReferences": {},
  "deployedLinkReferences": {}
}